{
  "_format": "hh-sol-artifact-1",
  "contractName": "Casino",
  "sourceName": "contracts/Casino.sol",
  "abi": [
    {
      "inputs": [
        {
          "internalType": "address",
          "name": "_vault",
          "type": "address"
        },
        {
          "internalType": "address",
          "name": "_token",
          "type": "address"
        }
      ],
      "stateMutability": "nonpayable",
      "type": "constructor"
    },
    {
      "anonymous": false,
      "inputs": [
        {
          "indexed": false,
          "internalType": "address",
          "name": "player",
          "type": "address"
        },
        {
          "indexed": false,
          "internalType": "bool",
          "name": "won",
          "type": "bool"
        },
        {
          "indexed": false,
          "internalType": "uint256",
          "name": "amountMinted",
          "type": "uint256"
        }
      ],
      "name": "GameResolved",
      "type": "event"
    },
    {
      "inputs": [
        {
          "internalType": "address",
          "name": "",
          "type": "address"
        }
      ],
      "name": "commits",
      "outputs": [
        {
          "internalType": "bytes32",
          "name": "",
          "type": "bytes32"
        }
      ],
      "stateMutability": "view",
      "type": "function"
    },
    {
      "inputs": [],
      "name": "owner",
      "outputs": [
        {
          "internalType": "address",
          "name": "",
          "type": "address"
        }
      ],
      "stateMutability": "view",
      "type": "function"
    },
    {
      "inputs": [],
      "name": "placeBet",
      "outputs": [],
      "stateMutability": "payable",
      "type": "function"
    },
    {
      "inputs": [],
      "name": "token",
      "outputs": [
        {
          "internalType": "contract ILoyaltyToken",
          "name": "",
          "type": "address"
        }
      ],
      "stateMutability": "view",
      "type": "function"
    },
    {
      "inputs": [],
      "name": "vault",
      "outputs": [
        {
          "internalType": "contract IVault",
          "name": "",
          "type": "address"
        }
      ],
      "stateMutability": "view",
      "type": "function"
    },
    {
      "inputs": [
        {
          "internalType": "string",
          "name": "clientSeed",
          "type": "string"
        },
        {
          "internalType": "string",
          "name": "secretServerSeed",
          "type": "string"
        }
      ],
      "name": "verifyAndMint",
      "outputs": [],
      "stateMutability": "nonpayable",
      "type": "function"
    },
    {
      "inputs": [
        {
          "internalType": "string",
          "name": "clientSeed",
          "type": "string"
        },
        {
          "internalType": "string",
          "name": "secretServerSeed",
          "type": "string"
        }
      ],
      "name": "verifySlots",
      "outputs": [],
      "stateMutability": "nonpayable",
      "type": "function"
    }
  ],
  "bytecode": "0x608060405234801561001057600080fd5b50604051610fcb380380610fcb8339818101604052810190610032919061015e565b336000806101000a81548173ffffffffffffffffffffffffffffffffffffffff021916908373ffffffffffffffffffffffffffffffffffffffff16021790555081600160006101000a81548173ffffffffffffffffffffffffffffffffffffffff021916908373ffffffffffffffffffffffffffffffffffffffff16021790555080600260006101000a81548173ffffffffffffffffffffffffffffffffffffffff021916908373ffffffffffffffffffffffffffffffffffffffff160217905550505061019e565b600080fd5b600073ffffffffffffffffffffffffffffffffffffffff82169050919050565b600061012b82610100565b9050919050565b61013b81610120565b811461014657600080fd5b50565b60008151905061015881610132565b92915050565b60008060408385031215610175576101746100fb565b5b600061018385828601610149565b925050602061019485828601610149565b9150509250929050565b610e1e806101ad6000396000f3fe6080604052600436106100705760003560e01c8063f1724a7d1161004e578063f1724a7d14610106578063f90f45601461012f578063fbfa77cf14610139578063fc0c546a1461016457610070565b806328debc6a146100755780637b43a8e61461009e5780638da5cb5b146100db575b600080fd5b34801561008157600080fd5b5061009c60048036038101906100979190610764565b61018f565b005b3480156100aa57600080fd5b506100c560048036038101906100c0919061083a565b6103a8565b6040516100d29190610880565b60405180910390f35b3480156100e757600080fd5b506100f06103c0565b6040516100fd91906108aa565b60405180910390f35b34801561011257600080fd5b5061012d60048036038101906101289190610764565b6103e4565b005b61013761050d565b005b34801561014557600080fd5b5061014e6105be565b60405161015b9190610924565b60405180910390f35b34801561017057600080fd5b506101796105e4565b6040516101869190610960565b60405180910390f35b600082826040516020016101a49291906109ec565b604051602081830303815290604052805190602001209050600060088260001c6101ce9190610a49565b905060006008808460001c6101e39190610a7a565b6101ed9190610a49565b90506000600860408560001c6102039190610a7a565b61020d9190610a49565b9050818314801561021d57508082145b156102bf57600260009054906101000a900473ffffffffffffffffffffffffffffffffffffffff1673ffffffffffffffffffffffffffffffffffffffff166340c10f193368056bc75e2d631000006040518363ffffffff1660e01b8152600401610288929190610ae6565b600060405180830381600087803b1580156102a257600080fd5b505af11580156102b6573d6000803e3d6000fd5b50505050610357565b600260009054906101000a900473ffffffffffffffffffffffffffffffffffffffff1673ffffffffffffffffffffffffffffffffffffffff166340c10f1933670de0b6b3a76400006040518363ffffffff1660e01b8152600401610324929190610b4a565b600060405180830381600087803b15801561033e57600080fd5b505af1158015610352573d6000803e3d6000fd5b505050505b7f5dea62de974e80e24d139ab97696d251ddd328dc56eb01a7d338c23b3c49825033838514801561038757508284145b606460405161039893929190610bc9565b60405180910390a1505050505050565b60036020528060005260406000206000915090505481565b60008054906101000a900473ffffffffffffffffffffffffffffffffffffffff1681565b600082826040516020016103f99291906109ec565b604051602081830303815290604052805190602001209050600060028260001c6104239190610a49565b90506000808214905080156104ca57600260009054906101000a900473ffffffffffffffffffffffffffffffffffffffff1673ffffffffffffffffffffffffffffffffffffffff166340c10f1933678ac7230489e800006040518363ffffffff1660e01b8152600401610497929190610c3b565b600060405180830381600087803b1580156104b157600080fd5b505af11580156104c5573d6000803e3d6000fd5b505050505b7f5dea62de974e80e24d139ab97696d251ddd328dc56eb01a7d338c23b3c4982503382600a6040516104fe93929190610c9f565b60405180910390a15050505050565b60003411610550576040517f08c379a000000000000000000000000000000000000000000000000000000000815260040161054790610d33565b60405180910390fd5b4233604051602001610563929190610dbc565b60405160208183030381529060405280519060200120600360003373ffffffffffffffffffffffffffffffffffffffff1673ffffffffffffffffffffffffffffffffffffffff16815260200190815260200160002081905550565b600160009054906101000a900473ffffffffffffffffffffffffffffffffffffffff1681565b600260009054906101000a900473ffffffffffffffffffffffffffffffffffffffff1681565b6000604051905090565b600080fd5b600080fd5b600080fd5b600080fd5b6000601f19601f8301169050919050565b7f4e487b7100000000000000000000000000000000000000000000000000000000600052604160045260246000fd5b61067182610628565b810181811067ffffffffffffffff821117156106905761068f610639565b5b80604052505050565b60006106a361060a565b90506106af8282610668565b919050565b600067ffffffffffffffff8211156106cf576106ce610639565b5b6106d882610628565b9050602081019050919050565b82818337600083830152505050565b6000610707610702846106b4565b610699565b90508281526020810184848401111561072357610722610623565b5b61072e8482856106e5565b509392505050565b600082601f83011261074b5761074a61061e565b5b813561075b8482602086016106f4565b91505092915050565b6000806040838503121561077b5761077a610614565b5b600083013567ffffffffffffffff81111561079957610798610619565b5b6107a585828601610736565b925050602083013567ffffffffffffffff8111156107c6576107c5610619565b5b6107d285828601610736565b9150509250929050565b600073ffffffffffffffffffffffffffffffffffffffff82169050919050565b6000610807826107dc565b9050919050565b610817816107fc565b811461082257600080fd5b50565b6000813590506108348161080e565b92915050565b6000602082840312156108505761084f610614565b5b600061085e84828501610825565b91505092915050565b6000819050919050565b61087a81610867565b82525050565b60006020820190506108956000830184610871565b92915050565b6108a4816107fc565b82525050565b60006020820190506108bf600083018461089b565b92915050565b6000819050919050565b60006108ea6108e56108e0846107dc565b6108c5565b6107dc565b9050919050565b60006108fc826108cf565b9050919050565b600061090e826108f1565b9050919050565b61091e81610903565b82525050565b60006020820190506109396000830184610915565b92915050565b600061094a826108f1565b9050919050565b61095a8161093f565b82525050565b60006020820190506109756000830184610951565b92915050565b600081519050919050565b600081905092915050565b60005b838110156109af578082015181840152602081019050610994565b60008484015250505050565b60006109c68261097b565b6109d08185610986565b93506109e0818560208601610991565b80840191505092915050565b60006109f882856109bb565b9150610a0482846109bb565b91508190509392505050565b6000819050919050565b7f4e487b7100000000000000000000000000000000000000000000000000000000600052601260045260246000fd5b6000610a5482610a10565b9150610a5f83610a10565b925082610a6f57610a6e610a1a565b5b828206905092915050565b6000610a8582610a10565b9150610a9083610a10565b925082610aa057610a9f610a1a565b5b828204905092915050565b6000819050919050565b6000610ad0610acb610ac684610aab565b6108c5565b610a10565b9050919050565b610ae081610ab5565b82525050565b6000604082019050610afb600083018561089b565b610b086020830184610ad7565b9392505050565b6000819050919050565b6000610b34610b2f610b2a84610b0f565b6108c5565b610a10565b9050919050565b610b4481610b19565b82525050565b6000604082019050610b5f600083018561089b565b610b6c6020830184610b3b565b9392505050565b60008115159050919050565b610b8881610b73565b82525050565b6000819050919050565b6000610bb3610bae610ba984610b8e565b6108c5565b610a10565b9050919050565b610bc381610b98565b82525050565b6000606082019050610bde600083018661089b565b610beb6020830185610b7f565b610bf86040830184610bba565b949350505050565b6000819050919050565b6000610c25610c20610c1b84610c00565b6108c5565b610a10565b9050919050565b610c3581610c0a565b82525050565b6000604082019050610c50600083018561089b565b610c5d6020830184610c2c565b9392505050565b6000819050919050565b6000610c89610c84610c7f84610c64565b6108c5565b610a10565b9050919050565b610c9981610c6e565b82525050565b6000606082019050610cb4600083018661089b565b610cc16020830185610b7f565b610cce6040830184610c90565b949350505050565b600082825260208201905092915050565b7f42657420736f6d65204554480000000000000000000000000000000000000000600082015250565b6000610d1d600c83610cd6565b9150610d2882610ce7565b602082019050919050565b60006020820190508181036000830152610d4c81610d10565b9050919050565b6000819050919050565b610d6e610d6982610a10565b610d53565b82525050565b60008160601b9050919050565b6000610d8c82610d74565b9050919050565b6000610d9e82610d81565b9050919050565b610db6610db1826107fc565b610d93565b82525050565b6000610dc88285610d5d565b602082019150610dd88284610da5565b601482019150819050939250505056fea26469706673582212202f5bcd5c679143dfa3eec2bee0a82aea6cb980cbe00cc4efe1dce756f1d1b48864736f6c634300081c0033",
  "linkReferences": {},
  "deployedLinkReferences": {}
}